:020000040800F2
:1000000000000220E9240008852400088724000855
:10001000892400088B2400088D24000800000000BB
:100020000000000000000000000000004111000876
:100030008F24000800000000D111000835120008CC
:100040003925000839250008392500083925000818
:100050003925000839250008392500083925000808
:1000600039250008392500083925000839250008F8
:1000700039250008392500083925000839250008E8
:1000800039250008392500083925000839250008D8
:1000900039250008392500083925000839250008C8
:1000A0003925000891240008392500083925000861
:1000B00039250008392500083925000839250008A8
:1000C0003925000839250008392500083925000898
:1000D0003925000839250008392500083925000888
:1000E0003925000839250008392500083925000878
:1000F0003925000839250008392500083925000868
:100100003925000839250008392500083925000857
:100110003925000839250008392500083925000847
:100120003925000839250008392500083925000837
:100130003925000839250008392500083925000827
:100140003925000839250008392500083925000817
:100150003925000839250008392500083925000807
:1001600039250008392500083925000839250008F7
:10017000392500083925000839250008000000004D
:080180003925000839250008AB
:1001900010B5054C237833B9044B13B10448AFF3C1
:1001A00000800123237010BD0C000020000000001F
:1001B0009425000808B5034B1BB103490348AFF36E
:1001C000008008BD000000001000002094250008F9
:1001D00053B94AB9002908BF00281CBF4FF0FF31AE
:1001E0004FF0FF3000F07AB9ADF1080C6DE904CEA4
:1001F00000F006F8DDF804E0DDE9022304B0704702
:100200002DE9F0478C460D460446089E002B51D13F
:100210008A4217466DD9B2FA82FEBEF1000F0BD0AA
:10022000CEF1200C01FA0EF520FA0CFC02FA0EF7C2
:100230004CEA050C00FA0EF44FEA174A250CBCFBF9
:10024000FAF81FFA87F90AFB18CC45EA0C4508FBB7
:1002500009F3AB420AD9ED1908F1FF3280F023818E
:10026000AB4240F22081A8F102083D44ED1AA4B24D
:10027000B5FBFAF00AFB105544EA054400FB09F906
:10028000A14509D9E41900F1FF3380F00A81A145A5
:1002900040F2078102383C44A4EB090440EA0840DC
:1002A0000021002E61D024FA0EF400233460736024
:1002B000BDE8F0878B4207D9002E54D0002186E894
:1002C00021000846BDE8F087B3FA83F1002940F029
:1002D0008E80AB4202D3824200F2FA80841A65EB30
:1002E00003050120AC46002E3FD086E81010BDE883
:1002F000F08712B90127B7FBF2F7B7FA87FEBEF114
:10030000000F34D1EB1B3A0C1FFA87FC0121B3FB21
:10031000F2F8250C02FB183345EA03450CFB08F301
:10032000AB4207D9ED1908F1FF3002D2AB4200F21F
:10033000D1808046ED1AA3B2B5FBF2F002FB105556
:1003400043EA05440CFB00FCA44507D9E41900F17D
:10035000FF3302D2A44500F2B8801846A4EB0C0487
:1003600040EA08409DE731463046BDE8F087CEF1CF
:10037000200405FA0EF307FA0EF720FA04F83A0CF7
:1003800025FA04F448EA0308B4FBF2F14FEA1845F1
:1003900002FB11441FFA87FC45EA044501FB0CF3FC
:1003A000AB4200FA0EF409D9ED1901F1FF3080F0EB
:1003B0008A80AB4240F2878002393D44EB1A1FFA33
:1003C00088F5B3FBF2F002FB103345EA034500FB6E
:1003D0000CF3AB4207D9ED1900F1FF386FD2AB42F5
:1003E0006DD902383D44EB1A40EA01418FE7C1F173
:1003F000200722FA07F88B4005FA01F448EA0303C4
:1004000020FA07FE4FEA134CFD404EEA040EB5FBFE
:10041000FCF94FEA1E440CFB19551FFA83F844EA15
:10042000054509FB08F4AC4202FA01F200FA01FAB0
:1004300008D9ED1809F1FF3043D2AC4241D9A9F1F6
:1004400002091D442D1B1FFA8EFEB5FBFCF00CFBB0
:1004500010554EEA054400FB08F8A04507D9E418FA
:1004600000F1FF3529D2A04527D902381C4440EAC3
:100470000940A4EB0804A0FB02894C45C6464D4642
:1004800015D312D056B1BAEB0E0364EB050404FA8F
:1004900007F7CB401F43CC40376074600021BDE8B4
:1004A000F0871846F8E69046E0E6C245EAD2B8EB97
:1004B000020E69EB03050138E4E72846D7E740461A
:1004C00091E78146BEE7014678E702383C4445E7BC
:1004D000084608E7A8F102083D442BE7704700BF33
:1004E00008B50B4B1A6842F400721A601A6842F49D
:1004F00080621A601A6842F480721A60032000F069
:100500001BF8002001F080FF01F05CFF002008BD17
:10051000003C0240034A044B11681B780B441360F3
:10052000704700BFD43F002000000020014B186836
:10053000704700BFD43F0020074AD36823F4E0632C
:100540001B041B0C43F0BF63000243F4003300F4B0
:10055000E0600343D360704700ED00E0174B30B517
:10056000DC68C4F30224C4F10703251D042B28BF53
:100570000423062D4FF0010505FA03F303F1FF33C1
:100580008CBF033C00241940A14005FA04F4013C4F
:100590002240002842EA01024FEA0212ADBF00F1F8
:1005A000604000F00F00064B00F56140B5BFD2B2CD
:1005B000D2B21A5480F8002330BD00BF00ED00E035
:1005C00014ED00E0002808DB4209012300F01F00C1
:1005D00003FA00F0014B43F82200704700E100E00D
:1005E0002DE9F04F85B00B68DFF8AC81684ADFF881
:1005F000AC91019300234FF0010E019C0EFA03FE13
:100600000EEA0406B64540F0AE804C6824F01007B0
:10061000022F16D14FEAD30A00EB8A0A03F0070B28
:10062000DAF820504FEA8B0B4FF00F0C0CFA0BFC52
:1006300025EA0C0C0D6905FA0BF545EA0C05CAF81C
:1006400020504FEA430A0325D0F800B005FA0AF516
:10065000ED4304F0030C0BEA050B0CFA0AFC013F16
:100660004CEA0B0C012FC0F800C011D8876807EACC
:10067000050BCF6807FA0AFC4CEA0B07876047684E
:1006800027EA0E0EC4F300179F4047EA0E074760A3
:10069000C7683D408F6807FA0AF73D43C560E5002B
:1006A00061D54FF0000BCDF80CB0D8F84470394D3F
:1006B00047F48047C8F84470D8F8447007F480477E
:1006C0000397039F23F0030707F1804707F59C3743
:1006D00003F0030CD7F808A04FEA8C0C4FF00F0E74
:1006E0000EFA0CFEA8422AEA0E0E43D005F58065EC
:1006F000A84241D005F58065A8423FD005F5806548
:10070000A8423DD005F58065A8423BD048453BD086
:1007100005F50065A84239D005F58065A84214BFEB
:100720000825072505FA0CF545EA0E05BD60156894
:10073000F74314F4803F0CBF3D40354315605568C6
:1007400014F4003F0CBF3D4035435560956814F4E8
:10075000801F0CBF3D4035439560D568A40254BF4F
:100760003D403543D5600133102B7FF444AF05B0D5
:10077000BDE8F08F5D46D5E70125D3E70225D1E737
:100780000325CFE70425CDE70525CBE70625C9E7F7
:10079000003C0140000002400038024000140240CA
:1007A0000369194214BF0120002070470AB181611A
:1007B00070470904FBE7436931EA030308BF0904F2
:1007C000816170472DE9F341044618B9012002B058
:1007D000BDE8F0810368DD0710D42368980758D47A
:1007E00023681A0700F19A8023685B0700F1B8803C
:1007F000A269002A40F019810020E8E7A64B9A6818
:1008000002F00C02042A07D09A6802F00C02082AAF
:100810000AD15B68590207D59F4B1B689A03DCD548
:100820006368002BD9D1D1E763689B4DB3F5803F56
:1008300011D12B6843F480332B60FFF777FE964D80
:1008400006462B689B03C8D4FFF770FE801B642804
:10085000F7D90320BBE7B3F5A02F04D12B6843F4ED
:1008600080232B60E5E72A6822F480322A602A6818
:1008700022F480222A60002BDFD1FFF757FE0646C4
:100880002B689F03A9D5FFF751FE801B6428F7D979
:10089000DFE7814B9A6812F00C0F07D09A6802F0DC
:1008A0000C02082A11D15B685E020ED47A4B1A68DA
:1008B000950702D5E268012A88D11A68216922F0D9
:1008C000F80242EAC1021A608AE7E268734BB2B1E9
:1008D00001221A60FFF72AFE6F4D06462B68980723
:1008E00007D52B68226923F0F80343EAC2032B6083
:1008F00076E7FFF71BFE801B0228EFD9A9E71A60F5
:10090000FFF714FE644D06462B6899077FF568AF24
:10091000FFF70CFE801B0228F6D99AE76269604B4C
:100920007AB101221A60FFF701FE5B4D06466B6F3C
:100930009F073FF559AFFFF7F9FD801B0228F6D955
:1009400087E71A60FFF7F2FD534D06466B6F980775
:100950007FF54AAFFFF7EAFD801B0228F6D978E75A
:100960004D4B1A6C12F0805228D101921A6C42F051
:1009700080521A641B6C03F080530193019B012683
:10098000484D2B68D9051BD5A368434D012B27D1B2
:100990002B6F43F001032B67FFF7C8FD3E4D074661
:1009A00041F288382B6F9B0739D5002E3FF420AFDA
:1009B000394A136C23F08053136419E70026DFE7EC
:1009C0002B6843F480732B60FFF7B0FD07462B685C
:1009D000DA05D9D4FFF7AAFDC01B0228F7D938E7FA
:1009E000052B04D12B6F43F004032B67D0E72A6F4C
:1009F00022F001022A672A6F22F004022A67002BE4
:100A0000CAD1FFF793FD41F2883807462B6F98074C
:100A1000CBD5FFF78BFDC01B4045F7D919E7FFF792
:100A200085FDC01B4045BDD913E71B4DAB6803F0E6
:100A30000C03082B3FF4CAAE1B4E0023022A33607E
:100A400034D1FFF773FD07462B6899011ED4226A43
:100A5000E3691343626A43EA8213E26A43EA026388
:100A6000A26A0D4C5208013A43EA02436B6001232B
:100A70003360FFF75BFD054623689A013FF5BCAE86
:100A8000FFF754FD401B0228F6D9E2E6FFF74EFDC2
:100A9000C01B0228D8D9DCE60038024000004742DB
:100AA000800E47420070004060004742FFF73EFD65
:100AB00004462B689B017FF59FAEFFF737FD001BB7
:100AC0000228F6D9C5E600BF134908B58B6803F0C4
:100AD0000C03042B03D0082B03D0104808BD10488A
:100AE00008BD4A684B68496813F4800314BF0C487A
:100AF0000A48C1F3881118BF002302F03F02A1FB8E
:100B00000001FFF765FB044B5B68C3F3014301334E
:100B10005B00B0FBF3F008BD003802400024F40095
:100B200000127A002DE9F0410D46044610B901206B
:100B3000BDE8F081444B1A6802F00F028A4228D3C4
:100B400021688F072DD4C80740D43F4B1A6802F0A4
:100B50000F02954266D3226851076CD4130707D55C
:100B60003A4A2169936823F4604343EAC1039360DE
:100B7000FFF7AAFF354B364A9B68C3F30313D35CD8
:100B8000D840344B1860002001F03EFC0020BDE846
:100B9000F081CAB21A701B6803F00F039942C6D1E4
:100BA000CEE72A4B11F0040F1EBF9A6842F4E052C0
:100BB0009A600E0742BF9A6842F460429A609A684F
:100BC000A06822F0F00202439A60BCE762681F4B03
:100BD000012A1DD11B6813F4003FA8D01B4EB36837
:100BE00023F003031343B360FFF7A0FC41F28838FE
:100BF0000746B368626803F00C03B3EB820FA4D01E
:100C0000FFF794FCC01B4045F3D90320BDE8F081F9
:100C1000911E01291B6802D813F0007FDDE713F055
:100C2000020FDAE7EAB21A701B6803F00F039D4265
:100C30007FF47DAF8FE70549E0688B6823F4E053CC
:100C400003438B608AE700BF003C0240003802404B
:100C50002626000808000020044B054A9B68C3F3C1
:100C60004233D35C034A1068D840704700380240D2
:100C700036260008080000200F2303600B4B9A68FB
:100C800002F0030242609A6802F0F00282609A6801
:100C900002F4E052C2609B68DB0803F4E053036196
:100CA000034B1B6803F00F030B60704700380240D2
:100CB000003C024010B50446002836D00023836271
:100CC00090F8513003F0FF021BB980F8502001F07A
:100CD00043FB2168A068A269022384F851300B68A5
:100CE00023F040030B6063680343E068034320691B
:100CF000034360690343E0690343206A0343A06A36
:100D0000034302F4007003430B60120C636A02F0A9
:100D100004021A434A60CB6923F40063CB610020CC
:100D20000123606584F8513010BD012010BD70476B
:100D30000368DA6842F00102DA609A6802F007029A
:100D4000062A1EBF1A6842F001021A60002070478E
:100D5000704770477047704703681A69910710B56C
:100D600004460ED5DA6892070BD56FF002021A61BD
:100D70009B6901229B07027777D0FFF7EAFF0023E8
:100D8000237723681A69500710D5DA6851070DD503
:100D90006FF004021A619B69022213F4407F2277EC
:100DA000204668D0FFF7D5FF0023237723681A6910
:100DB00012070FD5DA6810070CD56FF008021A6118
:100DC000DB6904229907227720465AD0FFF7C1FF3A
:100DD0000023237723681A69D20610D5DA68D00673
:100DE0000DD56FF010021A61DB69082213F4407F01
:100DF000227720464BD0FFF7ACFF002323772368F0
:100E00001A69D10708D5DA68D20705D56FF0010253
:100E10001A61204601F072FA23681A69100608D593
:100E2000DA68110605D56FF080021A61204600F0DD
:100E3000B6F823681A69520608D5DA68500605D54F
:100E40006FF040021A612046FFF785FF23681A6998
:100E5000910622D5DA6892061FD56FF0200220464F
:100E60001A61BDE8104000F099B8FFF771FF204605
:100E7000FFF770FF83E7FFF76BFF2046FFF76AFF7E
:100E800092E7FFF765FF2046FFF764FFA0E7FFF753
:100E90005FFF2046FFF75EFFAFE710BD304A0368F3
:100EA000904212D0B0F1804F0FD0A2F57C42904218
:100EB0000BD002F58062904207D002F5806290422A
:100EC00003D002F57842904219D14A6823F07003AA
:100ED0001343234A904229D0B0F1804F26D0A2F587
:100EE0007C42904222D002F5806290421ED002F5F0
:100EF000806290421AD002F57842904216D0194A88
:100F0000904213D002F5806290420FD002F58062C9
:100F100090420BD0A2F59832904207D002F5806241
:100F2000904203D002F58062904203D1CA6823F454
:100F3000407313434A6923F08003134303608B68B3
:100F4000C3620B688362064B984203D003F580634B
:100F5000984201D10B69036301234361704700BFCD
:100F6000000001400040014010B50446A0B190F8D7
:100F70003D3003F0FF021BB980F83C20FFF7D7FE9D
:100F8000022384F83D302068211DFFF787FF0123ED
:100F900084F83D30002010BD012010BD704770471F
:100FA00008B500F0ADFC002008BD70B505464669E7
:100FB0002A694068B5F908400B4686B0296876B1C1
:100FC000AD6965B1842C14BF0334002402958DE80B
:100FD000500000F031FC0590059806B070BD842CDF
:100FE00014BF0334002405AD92B28DE8300000F048
:100FF0005AFC0128F0D00020EFE708B5002808BF10
:10100000012000F0C5FD002008BD00F10803436089
:101010004FF0FF32C36003610023826003607047BA
:1010200000230361704743684B609A688A609A683E
:1010300051609960036808610133036070470A6872
:10104000531C30B50AD103695A684A6091608B60BD
:101050005960036808610133036030BD00F1080383
:101060005C682568AA42EFD32346F9E741688268A5
:1010700003698A60826851605968884208BF5A6073
:10108000002202611A68013A1A601868704700006D
:1010900082B0002301930D4B1B68013308D04FF041
:1010A000500383F31188BFF36F8FBFF34F8FFEE7B9
:1010B0004FF0500383F31188BFF36F8FBFF34F8F4F
:1010C000019B002BFCD002B0704700BF0400002041
:1010D00008480068006880F308884FF0000080F33B
:1010E000148862B661B6BFF34F8FBFF36F8F00DF16
:1010F00000BF000008ED00E0DFF80C00016841F4DB
:10110000700101607047000088ED00E04FF08073CF
:1011100040F8043C074B40F80C3C21F001016FF013
:10112000020340F8081C40F8202C40F8243C4438C6
:10113000704700BF91100008000000000000000090
:10114000074B19680868B0E8F04F80F30988BFF3CF
:101150006F8F4FF0000080F311887047AFF300806D
:10116000483C00204FF0500383F31188BFF36F8F8A
:10117000BFF34F8F0A4A13680133012B13600DD15F
:10118000084B1B6813F0FF0F08D04FF0500383F398
:101190001188BFF36F8FBFF34F8FFEE7704700BF1B
:1011A0000400002004ED00E0084A136843B94FF042
:1011B000500383F31188BFF36F8FBFF34F8FFEE7A8
:1011C000013B13600BB983F31188704704000020C2
:1011D000EFF30980BFF36F8F154B1A681EF0100FE5
:1011E00008BF20ED108A20E9F04F10602DE90900BA
:1011F0004FF0500080F31188BFF34F8FBFF36F8F14
:1012000000F0EAFC4FF0000080F3118809BC196877
:101210000868B0E8F04F1EF0100F08BFB0EC108A5D
:1012200080F30988BFF36F8F704700BFAFF3008072
:10123000483C002008B54FF0500383F31188BFF3FA
:101240006F8FBFF34F8F00F099FB18B1034B4FF036
:1012500080521A60002383F3118808BD04ED00E07A
:10126000084A0949002313600B60084B4FF47A7158
:101270001B68B3FBF1F30649013B0B6007231360C6
:10128000704700BF10E000E018E000E00800002018
:1012900014E000E0394B3A4A13B51968914208D17D
:1012A0004FF0500383F31188BFF36F8FBFF34F8F5D
:1012B000FEE71A68334B9A4208D14FF0500383F38C
:1012C0001188BFF36F8FBFF34F8FFEE72E4B1A7855
:1012D000D2B20192FF221A701B782C4ADBB28DF831
:1012E00003309DF8033003F050031370284B07229E
:1012F0001A6000219DF80300000602F1FF340DD4AE
:1013000001B11A601A68032A11D04FF0500383F319
:101310001188BFF36F8FBFF34F8FFEE79DF8032057
:101320005200D2B28DF8032001212246E2E71202D8
:1013300002F4E0621A60019B134ADBB21370154B92
:101340001A6842F470021A601A6842F070421A6019
:10135000FFF786FF104B00241C60FFF7CDFE0F4AFD
:10136000136843F040431360FFF7B2FE00F034FC13
:10137000FFF78EFE204602B010BD00BF00ED00E07A
:1013800071C20F4170C20F4100E400E0280000204C
:101390002C00002020ED00E00400002034EF00E0ED
:1013A00010B50F4B1A68824218D35C68191988422D
:1013B00001BF4168184609195960446801198A42F9
:1013C00007D1084909688A421FBF51681268091984
:1013D00041609842026018BF186010BD1346E1E7F3
:1013E000403C0020300000202DE9F041044600F090
:1013F000BDFA3E493E4D0B680BBB3E4A56071FBF28
:10140000D01D20F0070002F570531B1A14BF0246CE
:101410004FF470531344083B23F00703364E0B6020
:1014200000207060326058601860981A1360334B67
:1014300050601860324B18604FF000432B602F68EB
:10144000274216D1002C41D004F1080358071CBFD5
:1014500023F00703083363B1294A1668B342904664
:1014600007D8254A15686868834204D809688D4200
:1014700007D100242AE02C68002CF7D02A46254604
:10148000F1E7296814681160C21A102A0FD9E81808
:10149000410708D04FF0500383F31188BFF36F8FDB
:1014A000BFF34F8FFEE742606B60FFF779FF134990
:1014B0006B680868F61A1F4386424FF00003C8F8AD
:1014C000006038BF0E6008346F602B6000F0E8FAEF
:1014D000630708D04FF0500383F31188BFF36F8F79
:1014E000BFF34F8FFEE72046BDE8F08130000020BB
:1014F000343C002034000020403C00203C3C0020D4
:10150000383C002010B5044670B3184A50F8043C2B
:101510001268134208D14FF0500383F31188BFF3D0
:101520006F8FBFF34F8FFEE750F8081C41B14FF0AB
:10153000500383F31188BFF36F8FBFF34F8FFEE724
:1015400023EA020340F8043C00F010FA084A54F879
:10155000043C1168A4F108000B441360FFF720FF5E
:10156000BDE8104000F09CBA10BD00BF343C002024
:10157000383C00202DE9F0410646FFF7F3FD2D4BE6
:101580002D4C1A682D4F01321A602568002D45D167
:1015900026601B68012B1CD178191435FFF735FD27
:1015A0008C2DF9D1DFF8C080254D4046FFF72DFD89
:1015B0002846FFF72AFD2348FFF727FD2248FFF7BB
:1015C00024FD2248FFF721FD214BC3F80080214B69
:1015D0001D60214A21491368086801331360F26ACB
:1015E00001239340034314200B6000FB0270311D64
:1015F000FFF719FDFFF7D8FD194B1B6863B123688E
:10160000DA6AF36A9A4207D2164B4FF080521A6098
:10161000BFF34F8FBFF36F8FBDE8F081104B1B6896
:10162000002BD6D12368DA6AF36A9A4298BF266003
:10163000CFE700BFE03C0020483C0020543C0020A5
:101640000C3D0020283D0020543D0020403D00205E
:101650004C3C0020503C0020F03C0020F43C00209A
:101660003C3D002004ED00E0F83C0020064A1368F1
:101670001968064B19B94FF0FF321A6070471268AB
:10168000D268D2685268F8E74C3C0020203D002028
:101690002DE9F0470A9CDDF82480266B02F1804298
:1016A000013A06EB82069A4681464B1E26F0070653
:1016B00004F134020F31587802F8010B13F8010FCE
:1016C00008B18B42F7D1089D062D28BF06250027BB
:1016D000E5626564201D84F84370A764FFF7A0FCF1
:1016E000C5F1070504F11800FFF79AFCE7642461CF
:1016F000A561646284F85070524649463046FFF74F
:1017000005FD2060B8F1000F01D0C8F80040BDE829
:10171000F08710B590F8513004463BB9006BFFF7E5
:10172000F1FE2046BDE81040FFF7ECBE012BF9D0DA
:10173000022B08D04FF0500383F31188BFF36F8F53
:10174000BFF34F8FFEE710BD80B5DFF85C80124F0E
:10175000124C134D236863B9124B1B68012BF8D947
:101760004FF08053C8F80030BFF34F8FBFF36F8F37
:10177000EEE7FFF7F7FCFB68DE68301DFFF776FC4D
:101780002B68013B2B602368013B2360FFF70CFDB6
:101790003046FFF7BEFFDDE7543D0020E43C00206B
:1017A000E03C0020543C002004ED00E0F8B51B4B69
:1017B0001B4E1D680446306804300F46FFF756FC88
:1017C000334640B93168174EC96A326801208840F3
:1017D00022EA00023260621C07D137B11968124850
:1017E0000431BDE8F840FFF71EBC2C441A68A5423E
:1017F000546007D90D4A10681968BDE8F8400431F3
:10180000FFF71DBC0A4A106819680431FFF717FC7E
:10181000084B1A68944238BF1C60F8BD683D002030
:10182000483C0020F43C0020403D0020503C00207B
:101830004C3C0020203D002070B586B00B9D0C9CD8
:1018400045B94FF0500383F31188BFF36F8FBFF397
:101850004F8FFEE744B94FF0500383F31188BFF375
:101860006F8FBFF34F8FFEE754260496049E542ECD
:1018700008D04FF0500383F31188BFF36F8FBFF38D
:101880004F8FFEE72563022584F8515005AD019581
:101890000A9D02940095FFF7FBFE2046FFF76AFEC3
:1018A000059806B070BD2DE9F043074685B090005D
:1018B000884616469946FFF797FD0546E8B154203D
:1018C000FFF792FD0446A8B1002380F851300D9B2C
:1018D000056301930C9B0290009332464B464146B0
:1018E0003846FFF7D5FE2046FFF744FE012005B03D
:1018F000BDE8F0832846FFF705FE4FF0FF30F6E71E
:1019000010B588B0002407AA06A905A80594069476
:1019100000F090FB059B0293069B019300942346E5
:10192000079A0D490D48FFF787FF90B14FF050031C
:1019300083F31188BFF36F8FBFF34F8F084B4FF0C6
:10194000FF321A60074B01221A60074B1C60FFF739
:10195000A1FC08B010BD00BF002600084917000810
:10196000203D00203C3D0020683D0020024A1368D5
:1019700001331360704700BFEC3C00202DE9F84FA5
:101980003C4B1B68002B53D13B4B1C6801341C6043
:10199000BCB93A4B1A68126842B14FF0500383F356
:1019A0001188BFF36F8FBFF34F8FFEE7344A19687A
:1019B000106818601160334A136801331360FFF731
:1019C00055FE314D314F2B689C424FF0000B3ED3FA
:1019D000DFF8A880DFF8C490D8F80020126872BB46
:1019E0004FF0FF322A6032E006F1040A5046FFF75A
:1019F0003DFBB16A19B106F11800FFF737FBF06A39
:101A0000D9F80030012202FA00F11943204BC9F83D
:101A100000104FF0140E51460EFB0030FFF703FB91
:101A20003868F16AC26A914228BF4FF0010BD3E7D0
:101A3000184A1368013313604FF0000B11E0D8F817
:101A40000020D268D66871688C42CDD229603A688D
:101A50000F4BD16A14224A439A58022A28BF4FF0EA
:101A6000010B0D4A1268002A18BF4FF0010B5846AF
:101A7000BDE8F88FEC3C0020683D00204C3C002085
:101A8000503C0020243D0020203D0020483C002008
:101A9000543C0020E83C00206C3D0020F43C002039
:101AA0002DE9F843314C236843B94FF0500383F3D9
:101AB0001188BFF36F8FBFF34F8FFEE7FFF752FB25
:101AC0002368013B236024682CB10024FFF76CFBE2
:101AD0002046BDE8F883264B1B68002BF5D0DFF8C5
:101AE000A890244FDFF8A480D9F80030E3B90CB1F6
:101AF000FFF7BCFD204D2C6844B1204E0127FFF7B5
:101B00003DFF00B13760013CF9D12C601B4B1B68D5
:101B1000002BDAD01A4B4FF080521A60BFF34F8F70
:101B2000BFF36F8F0124D1E7D9F80C30DC68261D94
:101B300004F11800FFF79AFA3046FFF797FAE26AC5
:101B40003968012505FA02F314200B4300FB0280DB
:101B500031463B60FFF767FA0A4BE26A1B68DB6AB3
:101B60009A4224BF054B1D60BEE700BFEC3C00203D
:101B7000E03C0020F43C0020E83C00206C3D0020CC
:101B800004ED00E0483C0020283D0020543C0020AB
:101B900008B540B90E4B4FF080521A60BFF34F8F1B
:101BA000BFF36F8F08BD0B4B196841B14FF0500365
:101BB00083F31188BFF36F8FBFF34F8FFEE7FFF7FB
:101BC000D5FEFFF7F3FDFFF76BFF0028E2D008BD5D
:101BD00004ED00E0EC3C0020174B1A68174B10B5E1
:101BE00012B101221A6010BD1A60154B1B68B3FABE
:101BF00083F3DBB2C3F11F03142212495A4388183E
:101C00008C5844B94FF0500383F31188BFF36F8FA2
:101C1000BFF34F8FFEE744680832646844600A44AB
:101C2000944204BF62684260142202FB03135B68A3
:101C3000DA68054BD6E700BFEC3C00206C3D002085
:101C4000F43C0020543C0020483C00202DE9F041A9
:101C50000022044688461848174F1021FEF7A6FDBB
:101C60004444A0450BD1002220211348FEF79EFDDD
:101C7000012210211048BDE8F041FEF797BD14F88D
:101C8000016D0825002220210B48FEF78FFD330649
:101C90004CBF0122002240213846FEF787FD013D5E
:101CA000012220213846FEF781FD760015F0FF0560
:101CB000F6B2E7D1D5E700BF000C024008B501211C
:101CC0001B48FEF76DFD1B4B1A78032A04D8DFE88A
:101CD00002F00208122108B9002008BD01221A7082
:101CE000FAE728B102221A70134B0020186008BDD1
:101CF0000020187008BD10B91870022008BD0E49E8
:101D00000A680132642A0A60E6DD032018700023A5
:101D10000B6008BD0028EBD0074A13680133322B53
:101D200001DC1360D8E700231360032008BD00BF67
:101D300000000240783D0020743D002008B50421D9
:101D40000A48FEF72DFD68B108210848FEF728FD76
:101D500050B110210548FEF723FD002814BF0020D4
:101D6000042008BD012008BD022008BD001002406B
:101D700008B5FFF7E3FF0B4B0B4A197881420DD1F1
:101D8000138801339BB2032B138003D149B1074B56
:101D9000197008BD05D90423138008BD00211180E6
:101DA000187008BD723D0020703D0020D83F002013
:101DB00008B5054C20464FF40071FEF7FCFCFA20F4
:101DC000FFF71BF9F6E700BF001402402DE9F843C6
:101DD000844CDFF82082844F5523A3701023637056
:101DE0002146052303202370FFF730FF0123A37052
:101DF0002146002303206370FFF728FF4FF47A7019
:101E0000FFF7FBF8C14698F8006056B93D78012D00
:101E100012D14FF480617548FEF7CDFCA570667055
:101E2000267099F80030012B7FD13878012871D1C4
:101E3000A0700023637073E0022D0AD132464FF484
:101E400080616A48FEF7B2FC0123A370102363701F
:101E5000E6E7032D03D10123A3702023F7E7042D28
:101E600003D10123A3703023F1E7052D03D1012312
:101E7000A3704023EBE7062D03D10123A370502369
:101E8000E5E7072D03D10123A3706023DFE7082DC9
:101E900003D10123A3707023D9E7092D06D10123B3
:101EA000A3708023637000232370BAE70A2D03D147
:101EB0000123A3709023F5E70B2D03D10123A37019
:101EC000A023EFE70C2D03D10123A370B023E9E792
:101ED0000D2D03D10123A370C023E3E70E2D03D101
:101EE0000123A370D023DDE70F2D03D10123A370BD
:101EF000E023D7E7102D03D10123A370F023D1E70E
:101F0000112D8ED10123A370FF2363702370002352
:101F10003B7086E7022820D1A370192363709923B0
:101F2000304923700320FFF791FE314B1D78042DBB
:101F300056D0012D0CD13B7853B95522A2702949B6
:101F40002370102203206270FFF780FE89F8005092
:101F50004FF4FA70FFF751F855E7032805D1A37045
:101F60003323637023701F49DDE7042804D1A37075
:101F70004C236370CC23D3E7052802D1A3706623DA
:101F800058E7062804D1A370802363700023C7E7B5
:101F9000072802D1A37099234CE7082804D1A37025
:101FA000B32363703323BBE7092803D10123A37054
:101FB000CC233FE70A2805D10123A370E6236370F1
:101FC0006623ADE70B28B0D10123A3700549FF2399
:101FD000032063702370FFF739FE00233B70A4E7F2
:101FE000BDE8F8837B3D0020793D002000140240CD
:101FF000D83F00207A3D002070B50C4C0C4D0826CF
:10200000FFF75CFE80B202280CD1237801332370E5
:10201000FFF7AEFE29460320FFF718FE0A20FEF761
:10202000ECFFEDE7032808BF2670F1E7793D0020BB
:102030007B3D0020034B0360034B0B608023136048
:10204000704700BF803F0020803D002070B5174CD6
:1020500026460FCE96B001AD0FC596E8070085E87D
:102060000700002101A8FEF7A0FF114B04F11C0698
:1020700018600FCE08AD0FC596E8070085E8070089
:10208000002108A8FEF791FF0A4B383418600FCCE6
:102090000FAD0FC594E8070085E8070000210FA8E1
:1020A000FEF783FF044B186016B070BDAC25000826
:1020B000DC3F0020E03F0020E43F00202DE9F0431A
:1020C0008DB01422002107A800F05CFA0024594BBF
:1020D00000941A6B584FDFF87091584E42F010027E
:1020E0001A631A6B02F010020092009A01941A6BA4
:1020F00042F004021A631A6B02F004020192019A80
:1021000002941A6B42F020021A631A6B02F020024A
:102110000292029A03941A6B42F080021A631A6BBD
:1021200002F080020392039A04941A6B42F00102B7
:102130001A631A6B02F001020492049A05941A6B56
:1021400042F002021A631A6B02F002020592059A2B
:1021500006941A6B42F008021A631B6B03F0080323
:102160000693384601224FF4C061069BFEF71EFB22
:10217000484601224FF40041FEF718FB3046012289
:102180001021FEF713FB224630466021FEF70EFBBE
:102190001C2301250DEB0301294807930894099599
:1021A000FEF71EFA4FF4007307A938460793089507
:1021B00009950A94FEF714FA4FF4806307A938468C
:1021C00007934FF00208089509940A94FEF708FA5D
:1021D00007A91C4807950894CDF82480FEF700FA5B
:1021E0004FF4004307A9484607930327089509952C
:1021F0000A95FEF7F5F9502307A93046079308958D
:1022000009950A97FEF7ECF9202307A930460793B2
:102210000895CDF824800A97FEF7E2F9802307A9F4
:102220003046079308940994FEF7DAF90DB0BDE83B
:10223000F08300BF0038024000140240000C02404E
:1022400000100240000002400004024030B595B08A
:102250003022002108A800F095F90021142203A8DB
:1022600000F090F900241C4B01941A6C42F080524B
:102270001A641B6C03F080530193019B174B02946B
:102280001A6842F480421A601B680F9403F480437A
:102290000293029B01230B9310230C9308231093AA
:1022A000A8230225119308A80423139308950E95DB
:1022B0001295FEF787FA0F2303934FF4A05306936A
:1022C00005214FF4805303A8049505940793FEF766
:1022D00029FC15B030BD00BF00380240007000403E
:1022E00008B5FEF7FDF8FFF7B1FFFFF7E7FE00F0D6
:1022F00011F8FFF7ABFEFEF753FEFEE70268034B53
:102300009A4201D1FEF706B9704700BF00000140B4
:102310007047000008B50E480E4B4FF4827E80E8EF
:10232000084000238360C360036143614FF400727F
:10233000C3610362436283620A238261C362FEF760
:10234000B9FC18B1BDE80840FFF7E2BF08BD00BF07
:10235000E83F00200030014010B5044688B0142248
:10236000002103A800F00EF92268144B9A4222D1F2
:1023700003F58433002101915A6C114842F48052D4
:102380005A645A6C02F480520192019A02911A6BBB
:1023900042F002021A631B6B03F002030293029BDA
:1023A00038230393022304930323069303A90523ED
:1023B0000793FEF715F908B010BD00BF00300140CB
:1023C0000004024007B50F4B00220092596C41F403
:1023D00080415964596C01F4804100910099019247
:1023E000196C41F0805119641B6C03F08053019308
:1023F0000F216FF00100019BFEF7B0F803B05DF80C
:1024000004FB00BF0038024030B5014689B000220D
:102410001920FEF7A3F81920FEF7D4F80025154B74
:1024200002955A6C144C42F001025A645B6C03F042
:102430000103029301A903A8029BFEF71DFCFEF70E
:102440000BFC0E4B236040F2E733E36040000C4B83
:10245000B0FBF3F00138606020462561A560FEF70F
:1024600083FD20B92046FEF763FC09B030BD012092
:10247000FBE700BF00380240404000200000014060
:1024800040420F007047FEE7FEE7FEE7FEE77047B9
:102490000148FEF761BC00BF404000200F49D1F861
:1024A000883043F47003C1F888300D4B1A6800205F
:1024B00042F001021A6098601A6822F0847222F4D5
:1024C00080321A60074A5A601A6822F480221A6021
:1024D000D8604FF000638B60704700BF00ED00E0F4
:1024E0000038024010300024DFF834D0002103E02F
:1024F0000C4B5B58435004310B480C4B42189A422A
:10250000F6D30B4A02E0002342F8043B094B9A42FF
:10251000F9D3FFF7C3FF00F011F8FFF7E1FE7047B2
:102520000000022050260008000000200C000020BF
:102530000C00002080400020FEE7000070B50D4E2A
:102540000D4CA41BA4100025A54209D10B4E0C4C28
:1025500000F020F8A41BA4100025A54205D170BDF1
:1025600056F8253098470135EEE756F8253098475C
:102570000135F2E7482600084826000848260008EA
:102580004C26000802440346934200D1704703F8EA
:10259000011BF9E7F8B500BFF8BC08BC9E467047C0
:0C25A000F8B500BFF8BC08BC9E467047B0
:1025AC001C260008B11D00080000000000000000FF
:1025BC008000000000000000000000000F26000852
:1025CC00CD1D0008FDFF0000000000008000000091
:1025DC00000000000000000005260008F91F00089C
:1025EC00FDFF000000000000800000000000000063
:1025FC000000000049444C45005461736B335F4B41
:10260C004559005461736B325F41443534313200AB
:10261C005461736B315F4C454400000000000000B6
:10262C000000010203040607080900000000010273
:04263C000304000093
:08264000C0DBFF7F0100000078
:04264800B5010008D0
:04264C0091010008F0
:0C26500001000000AAAAAAAA0024F400BD
:04000005080024E9E2
:00000001FF
