:020000040800F2
:10000000604400205D02000843110008470F00080B
:1000100041110008110400088D13000800000000C1
:100020000000000000000000000000009D0100082A
:100030001304000800000000F9010008B5110008D1
:1000400077020008770200087702000877020008AC
:10005000770200087702000877020008770200089C
:10006000770200087702000877020008770200088C
:10007000770200087702000877020008770200087C
:10008000770200087702000877020008770200086C
:10009000770200087702000877020008770200085C
:1000A00077020008B91200087702000877020008FA
:1000B000770200087702000877020008770200083C
:1000C000770200087702000877020008770200082C
:1000D000770200087702000877020008770200081C
:1000E000770200087702000877020008770200080C
:1000F00077020008770200087702000877020008FC
:1001000077020008770200087702000877020008EB
:1001100077020008770200087702000877020008DB
:1001200077020008770200087702000877020008CB
:1001300077020008770200087702000877020008BB
:1001400077020008770200087702000877020008AB
:10015000770200087702000877020008770200089B
:10016000770200087702000877020008770200088B
:1001700077020008770200087702000800000000FC
:100180007702000877020008DFF80CD000F0ECF8E6
:10019000004800475F140008604400202C4B196899
:1001A0000868B0E8F04F80F30988BFF36F8F4FF015
:1001B000000080F3118870470000000008480068C4
:1001C000006880F308884FF0000080F3148862B65E
:1001D00061B6BFF34F8FBFF36F8F00DF00BF00BF6B
:1001E00008ED00E0DFF80C00016841F470010160E7
:1001F000704700BF88ED00E0EFF30980BFF36F8F19
:10020000134B1A681EF0100F08BF20ED108A20E96A
:10021000F04F106009B44FF0500080F31188BFF325
:100220004F8FBFF36F8F01F0ADFC4FF0000080F3F4
:10023000118809BC19680868B0E8F04F1EF0100F6B
:1002400008BFB0EC108A80F30988BFF36F8F704746
:100250001C000020EFF3058070470000064880472F
:1002600006480047FEE7FEE7FEE7FEE7FEE7FEE79B
:10027000FEE7FEE7FEE7FEE76512000889010008D9
:100280002DE9F05F0546002092469B4688460646CB
:10029000814640241BE0284641464746224600F05E
:1002A00053F853465A46C01A914110D31146184686
:1002B000224600F03AF82D1A67EB01084F46224615
:1002C0000120002100F031F817EB00094E41201EFB
:1002D000A4F10104DFDC484631462A464346BDE826
:1002E000F09F40EA01039B0703D009E008C9121FF1
:1002F00008C0042AFAD203E011F8013B00F8013BE0
:10030000521EF9D27047D2B201E000F8012B491E0B
:10031000FBD270470022F6E710B513460A460446A2
:100320001946FFF7F0FF204610BD202A04DB203AD3
:1003300000FA02F1002070479140C2F1200320FA38
:1003400003F3194390407047202A04DB203A21FA36
:1003500002F00021704721FA02F3D040C2F12002DE
:100360009140084319467047064C074D06E0E06887
:1003700040F0010394E8070098471034AC42F6D3EC
:10038000FFF706FF801F0008A01F00081E4C552025
:100390000025A0701020607025702146032000F019
:1003A000F7FF0126A67065702146032000F0F0FFDC
:1003B0004FF47A7001F066F8A670FF20607020702C
:1003C0002146032000F0E4FF0220A0706570267033
:1003D0002146032000F0DCFFB4020C4D00F0B2FE19
:1003E00002280AD003280AD001222146284600F01C
:1003F000FFF8642001F046F8F0E70022F5E7214617
:10040000284600F0EEF8F4E7000000200014024057
:10041000FEE77047704700002DE9F84FDFF88C9138
:10042000002209F1040A0AF1040B4FF00F080BF146
:10043000040E01260B6896403340B34271D14C68DC
:10044000022C01D0122C11D1D40800EB84073D6A94
:100450005407E40E08FA04FC25EA0C05D1F810C094
:100460000CFA04FC4CEA050CC7F820C007685400DD
:10047000032591F804C0A5400CF0030CAF430CFA1F
:1004800004FC4CEA070CC0F800C04F68012F05D0EF
:10049000022F03D0112F01D0122F11D18768D1F86C
:1004A0000CC0AF430CFA04FC4CEA070CC0F808C0BF
:1004B0004768B7430E79C6F3001696403E43466040
:1004C000C668AE438D68A5403543C5604C68E400FE
:1004D00065D5374C256845F480452560246822F0B1
:1004E000030504F480440094324C2E19D6F80878A1
:1004F0009407250F08FA05F4A7432F4CA04201D119
:10050000002424E02D4CA04201D101241FE02C4CFA
:10051000A04201D102241AE02A4CA04202D10324B5
:1005200015E03CE0284CA04201D104240FE0274C08
:10053000A04201D105240AE0254CA04201D10624A5
:1005400005E0244CA04201D1072400E00824AC407F
:100550003C43C6F80848D9F800404D464E689C43D5
:10056000F60300D51C432C60DAF8004055464E686F
:100570009C43B60300D51C432C60DBF800405D466D
:100580004E689C43F60200D51C432C60DEF8004008
:1005900075464E689C43B60200D51C432C60521C25
:1005A000102AFFF446AFBDE8F88F0000003C014080
:1005B0004438024000300140000002400004024084
:1005C00000080240000C02400010024000140240EB
:1005D00000180240001C02400069084000D00120C1
:1005E0007047426931EA020200D109048161704713
:1005F0000AB1816170470904FBE700000148806887
:10060000704700000C000020024881680278114405
:10061000816070470C0000200B4810B5016841F460
:1006200000710160016841F480610160016841F47A
:1006300080710160032000F08DF8002000F006F8C2
:1006400000F03EF8002010BD003C024010B501460D
:1006500088B00022192000F05DF8192000F04CF855
:1006600013480024016841F001010160006805A9F8
:1006700000F001000690684600F016F900F034F929
:100680000C494000B0FBF1F10C480B4A491E0260D6
:1006900040F2E732C0E90324C0E9011400F064FB32
:1006A00010B1012008B010BD044800F079FBF9E753
:1006B0004438024040420F00000001403003002057
:1006C0000C4882B0016841F480410160006800F488
:1006D000804000900748001F016841F08051016090
:1006E0000068002200F0805000900F21901E02B0A0
:1006F00000F010B844380240002809DB00F01F0267
:10070000012191404009800000F1E020C0F8001173
:1007100070470000F0B40E4B1B68C3F30223C3F113
:100720000704042C00D904241D1D072D01D2002329
:1007300000E0DB1E012606FA04F56D1E0D409D400B
:100740009E40761E164045EA0601F0BC00F068BEE9
:100750000CED00E0064A00F0070110684FF6FF03B9
:10076000184040EA01200349084310607047000028
:100770000CED00E00000FA052DE9F0470D460400FD
:1007800065D0DFF81491D9F80000EFB200F00F0047
:10079000A84207D289F80070D9F8000000F00F00D5
:1007A000A84254D120683D4E810712D5400703D599
:1007B000306840F4E05030602078000703D530689E
:1007C00040F4604030603068A16820F0F0000843D9
:1007D00030602078C0072DD0304960680839012882
:1007E00012D0022813D0032811D0096889070029E4
:1007F0002DDA316821F0030101433160FFF7FEFE7D
:10080000804641F2883A0EE009688903EFE70968FB
:100810008901ECE7FFF7F2FEA0EB0801514502D990
:100820000320BDE8F0873068616800F00C00B0EB91
:10083000810FEFD1D9F80010484601F00F01A9420D
:1008400007D90770006800F00F00A84201D001200E
:10085000E7E72078400705D53068E16820F4E050EC
:10086000084330602078000706D53068216920F4FD
:10087000604040EAC100306000F046F83168084A44
:10088000C1F30311515CC840064908600020FFF71E
:10089000DDFE0020C5E70000003C024008380240B1
:1008A0004C1F0008180000200F2202600C4A136839
:1008B00003F003034360136803F0F00383601368DD
:1008C00003F4E053C36012684FF4E05303EAD2022A
:1008D00002610448006800F00F00086070470000E3
:1008E00008380240003C0240044805490068096895
:1008F000044AC1F34231515CC840704718000020DF
:10090000083802405C1F0008154810B5006810F058
:100910000C01144813D0431004290FD008290ED11C
:100920000F4C241F216801F03F022168490207D5BE
:100930002068C0F38810A0FB030106E0184610BD34
:100940002168C1F38811A1FB00010023FFF798FC87
:100950002168C1F30141491C4900B0FBF1F010BD11
:10096000083802400024F4002DE9F84F040073D049
:100970002078BD4DC00748D0BB4808300168C1F39E
:100980008101012908D00068C0F3810002280AD142
:10099000281D0068400206D52868800335D56068A8
:1009A0000028E4D031E06068B0F5803F10D0B0F5A9
:1009B000A02F286810D020F480302860286820F408
:1009C000802028606068A0B1FFF718FE06460CE0A2
:1009D000286840F48030F4E740F480202860F7E78E
:1009E000FFF70CFE801B642872D828688003F7D5B7
:1009F0000BE0FFF703FE064604E0FFF7FFFD801B58
:100A00006428F1D828688003F7D42078DFF85C9256
:100A100080074FF0000A3ED593480830016811F076
:100A20000C0F09D00068C0F3810002280BD18E485A
:100A3000001D0068400206D42868800715D5E068CC
:100A4000012809D111E0E068B8B10120C9F800001F
:100A5000FFF7D4FD064605E003E1FFF7CFFD801B5D
:100A60000228C1D828688007F7D52868216920F0B6
:100A7000F80040EAC10028600DE0C9F800A0FFF7C7
:100A8000BDFD064604E0FFF7B9FD801B02281FD814
:100A900028688007F7D42078000722D5724F744960
:100AA0006069743770B101200860FFF7A7FD064642
:100AB00004E0FFF7A3FD801B022809D838688007EF
:100AC000F7D50EE0C1F800A0FFF798FD064605E057
:100AD00081E0FFF793FD801B02287CD838688007EF
:100AE000F7D42078400769D5DFF87CB14FF00008D3
:100AF0000BF1400BDBF80000C0000CD4DBF8001059
:100B000041F08051CBF80010DBF800004FF00108F5
:100B100000F080500090574F3868C0050FD43868F7
:100B200040F480703860FFF769FD064604E0FFF787
:100B300065FD801B02284ED83868C005F7D54A4F9E
:100B4000A068703701280FD00528386810D020F031
:100B500001003860386820F004003860A068B0B147
:100B6000FFF74CFD06460EE0386840F00100F4E760
:100B700040F004003860F7E7FFF740FD811B41F2C9
:100B80008830814265D838688007F5D50DE0FFF7D9
:100B900035FD064606E0FFF731FD811B41F2883046
:100BA000814256D838688007F5D4B8F1000F05D0D7
:100BB000DBF8001021F08051CBF80010A069C8B319
:100BC000294908310968C1F38101022949D0022865
:100BD000504607D000E03CE0C9F86000FFF70EFD8A
:100BE000044639E04F46C9F86000FFF707FD0646A6
:100BF00004E0FFF703FD801B02282AD82868800143
:100C0000F7D4D4E907010843A16A1B4A490802EB5B
:100C10000141626A41EA8211084394F82C1040EACB
:100C200001611148001D016001203866FFF7E6FCF4
:100C3000044605E013E0FFF7E1FC001B022808D89A
:100C400028688001F7D50AE0FFF7D8FC001B0228CE
:100C500002D90320BDE8F88F28688001F4D4002071
:100C6000F8E70120F6E700000038024000004742A4
:100C7000800E4742007000400000FFFF70B5040086
:100C800005D00025A56294F8510010B106E00120BE
:100C900070BD84F85050204600F030F8022084F8EF
:100CA00051002068016821F040010160D4E9010190
:100CB0000843D4E903121143084361690843218BB7
:100CC00001F400710843E1690843216A0843A16AFD
:100CD000084321680860A069042101EA1040616AA4
:100CE0000843216848602068C16921F40061C1613E
:100CF0006565012084F85100002070BD10B586B0F4
:100D0000044614216846FFF705FB13492068884212
:100D100020D112480021026842F48052026000682B
:100D200000F4805005900D481438026842F0020229
:100D30000260006800F00200059038200090022058
:100D4000CDE9010103200390052004906946044881
:100D5000FFF762FB06B010BD00300140443802408E
:100D6000000402407047704710B5040003D094F8A7
:100D70003D0010B107E0012010BD002084F83C00C8
:100D8000204600F00CF8022084F83D00211D206868
:100D900000F098FA012084F83D00002010BD704753
:100DA0000168CA6842F00102CA600068816801F007
:100DB0000701062903D0016841F00101016000200C
:100DC0007047704770B50446006801694FF0000530
:100DD000C943890715D4C168C943890711D4E91EDD
:100DE000016101202077206880698007204602D0B9
:100DF000FFF7E7FF04E000F098F8204600F096F8CF
:100E0000257720680169C943490717D4C168C943D8
:100E1000490713D46FF00401016102202077206894
:100E2000806910F4407F204602D0FFF7CAFF04E03B
:100E300000F07BF8204600F079F8257720680169FA
:100E4000C943090716D4C168C943090712D46FF012
:100E500008010161042020772068C06980072046CE
:100E600002D0FFF7AEFF04E000F05FF8204600F08C
:100E70005DF8257720680169C943C90617D4C168A0
:100E8000C943C90613D46FF010010161082020770F
:100E90002068C06910F4407F204602D0FFF791FF20
:100EA00004E000F042F8204600F040F82577206882
:100EB0000169C943C90708D1C168C943C90704D139
:100EC000891E0161204600F033F820680169C9439A
:100ED000090609D4C168C943090605D46FF0800129
:100EE00001612046FFF73EFF20680169C9434906BA
:100EF00009D4C168C943490605D46FF040010161B6
:100F0000204600F01FF820680169C94389060BD408
:100F1000C168C943890607D46FF0200101612046EA
:100F2000BDE87040FFF71FBF70BD704770470000FD
:100F300000680349884201D1FFF766BB7047000093
:100F4000000001407047FEE7054D4FF40074214654
:100F50002846FFF746FBFA2000F094FAF7E7000076
:100F60000014024010B58EB01C220B496846FFF7F2
:100F7000B8F90021684600F091FA084C06491C2295
:100F800060601C3107A8FFF7ACF9002107A800F04A
:100F900085FAA0600EB010BD141F000800000020EC
:100FA0002DE9F04387B014216846FFF7B3F94D48A7
:100FB0000025016841F010010160016801F0100195
:100FC0000591016841F004010160016801F004012C
:100FD0000591016841F020010160016801F02001E4
:100FE0000591016841F080010160016801F0800114
:100FF0000591016841F001010160016801F0010102
:101000000591016841F002010160016801F00201EF
:101010000591016841F0080101600068324F00F05D
:101020000800059001224FF4C0613846FFF7E0FA4E
:101030000122DFF8B880D60331464046FFF7D8FAE0
:10104000DFF8AC90012210214846FFF7D1FA0022C8
:1010500060214846FFF7CCFA1C20CDE900050124A9
:10106000694602942348FFF7D7F96002CDE90004EE
:1010700069463846CDE90245FFF7CEF9A0028DE872
:101080003100694638460395FFF7C6F902278DE817
:10109000B00069461848FFF7BFF9CDE90064029433
:1010A000694640460394FFF7B7F95020CDE90004A4
:1010B0000326CDE9024669464846FFF7ADF92020F0
:1010C00003968DE8910069464846FFF7A5F9802010
:1010D000CDE90005694648460295FFF79DF907B03E
:1010E000BDE8F083303802400014024000040240A2
:1010F000000C024000100240000002400F4810B5F2
:101100000D4901604FF48271416000218160C1602E
:101110004FF400720161C0E90512C16101624162D0
:1011200081620A21C162FFF7A9FD002803D0BDE852
:101130001040FFF76FB910BD00300140D802002009
:10114000FEE7704710B504211848FFF745FA184B21
:1011500000211A783AB10024012A08D0022A0AD0C4
:10116000032A20D115E0F0B9012018701BE088B9DE
:101170000220187016E010B11C70022113E05868AC
:10118000401C586064280EDD0320187001465C6026
:1011900009E008B11C7006E05868401C586032280D
:1011A00001DD03215C60084610BD00000010024014
:1011B0007C00002010B5502080F31188BFF34F8FC2
:1011C000BFF36F8F00F0E0FD18B104494FF080507D
:1011D0000860002080F3118810BD000004ED00E0DD
:1011E00030B593B030216846FFF794F814210CA86D
:1011F000FFF790F819480025016841F0805101601F
:10120000006800F0805011901548016841F4804159
:1012100001600068022400F48040119001200390D6
:1012200010200490009406940820CDE90750A820CF
:10123000CDE9090404200B906846FFF795FB0CA943
:101240000F2081E831004FF4A0500F90E002109081
:1012500005210CA8FFF790FA13B030BD40380240CA
:10126000007000401048016841F4700101600F48AF
:10127000016841F0010101600C4A0021083211604F
:1012800002680B4B1A400260031D0A4A1A6002688A
:1012900022F48022026005480C30016002495806A1
:1012A000803908607047000088ED00E00038024097
:1012B000FFFFF6FE103000240148FFF783BD000059
:1012C00030030020F0B50268254D264E264FDFF88A
:1012D0009CC0274B4FF0804EA84209D0704507D0E4
:1012E000B04205D0B84203D0604501D0984203D146
:1012F00022F070044A682243A8421BD0704519D0DE
:10130000B04217D0B84215D0604513D0984211D0E2
:10131000184CA0420ED0184CA0420BD0174CA04243
:1013200008D0174CA04205D0164CA04202D0164C53
:10133000A04203D122F44074CA6822434C6922F0CF
:101340008002224302608A68C2620A688262A842FE
:1013500001D0984201D10969016301214161F0BDC9
:10136000000001400004004000080040000C004064
:101370000004014000400140004401400048014099
:1013800000180040001C004000200040FEE7000064
:101390002DE9F041214F88460646002210213846AB
:1013A000FFF726F925E008EB0600002410F8015CA1
:1013B000002220213846FFF71BF9280601D501221B
:1013C00000E0002240213846FFF712F90120401EBC
:1013D000FDD1012220213846FFF70AF90120401EE5
:1013E000FDD16806641C050EE4B2082CE0D3761E1D
:1013F000F6B2002ED7D1002220213846FFF7F8F8A8
:101400000121491EFDD1012210213846FFF7F0F8D5
:101410001420401EFDD1BDE8F0810000000C024008
:101420000907090E002804DB00F1E02080F8001411
:10143000704700F00F0000F1E02080F8141D7047A5
:1014400002E008C8121F08C1002AFAD1704770478D
:10145000002001E001C1121F002AFBD17047FFF7F5
:10146000DBF8FFF7BDFEFFF79BFDFFF747FEFFF739
:1014700079FD00F00EF8FEE701460020842900D037
:10148000C81C704710B500B9012000F017FB002000
:1014900010BD10B500F038FB002010BD7FB50D4623
:1014A00004464169B0F9080081B1A16971B1FFF743
:1014B000E3FFD4E905128DE80700D4E900102B46BC
:1014C000226900F034FC039004B070BDFFF7D4FF34
:1014D00003A9CDE90001208A2B4682B2D4E900108D
:1014E00000F0F8FB012801D00020EDE70398EBE7BE
:1014F0002DE9F041184E0F46044675693068001D0D
:1015000000F018FA38B9306890F82C1001208840A3
:10151000B1698143B161601C07D137B13168BDE861
:10152000F0410E48091D00F049BA30682C44AC4225
:101530004460316805D2B068BDE8F041091D00F093
:1015400025BA7068091D00F021FA306B844200D280
:101550003463BDE8F08100001C0000204C04002032
:101560002DE9F041054600F035FA2E4E3069401C59
:10157000306130682C4F10B1F06940B32DE0356018
:101580003069012829D1002404EB840007EB800096
:1015900000F0EEF9641C072CF6D323488C3000F0E1
:1015A000E7F92148A03000F0E3F91F48B43000F01B
:1015B000DFF91D48C83000F0DBF91B48DC3000F0D3
:1015C000D7F919488C3070601430B06005E030688D
:1015D000E96AC06A884200D83560F06A0121401C7F
:1015E000F062E86AB26981401143B16100EB8000AA
:1015F00007EB8000291D00F0E1F900F00BFAF0691B
:1016000000280CD03068E96AC06A884207D20749CE
:101610004FF080500860BFF34F8FBFF36F8FBDE86E
:10162000F08100001C0000207003002004ED00E0A9
:1016300010B5044690F8510058B101280CD002288A
:101640000FD0502080F31188BFF34F8FBFF36F8FFF
:10165000FEE7206B00F0F2F92046BDE8104000F0F4
:10166000EDB910BD10484FF47051420706D0C01DAF
:101670000D4920F00700411AC1F570510B4A0023B3
:101680000144C2E900030839103A21F00701116052
:101690004B600B600B1AC0E9001393604FF00040E1
:1016A0005360D06070470000600400206800002094
:1016B000134E144DA6F1C8074FF08058DFF848903C
:1016C00011E000F087F9F068C468201D00F032F9DD
:1016D0002869401E2861E868401EE86000F09AF919
:1016E0002046FFF7A5FFE8680028EAD138680128FE
:1016F000F9D9C9F80080BFF34F8FBFF36F8FF2E7BE
:10170000380400201C00002004ED00E02DE9F04723
:101710009A46DDE9098481466FF00303206B03EBF1
:1017200082021044089D20F00706700707D0502061
:1017300080F31188BFF34F8FBFF36F8FFEE723183D
:101740000A5C83F834200A5C12B1401C1028F6D3DE
:10175000002784F84370072D00D30625E562C4E90D
:101760001157201D00F00FF904F1180000F00BF9DB
:101770002461C5F107006462A061E76484F85070D9
:1017800052464946304600F0BFF82060B8F1000FDD
:1017900001D0C8F80040BDE8F087000030B511491D
:1017A00000E011460A688242FBD34B685C18844211
:1017B00003D1406818444860084643681C189442A6
:1017C00009D1084C103C2468A24209D052681A443E
:1017D00042600A6812680260814200D0086030BD31
:1017E0000460F9E76800002006484168096829B1EB
:1017F0004168C968C9684968016370474FF0FF31A3
:10180000FAE700001C00002008484068401C4FF028
:10181000500080F3118804D0BFF34F8FBFF36F8F58
:10182000FEE7BFF34F8FBFF36F8FFEE7700000201E
:101830002DE9F0410546002600F09CF9314F38684B
:1018400008B9FFF70FFFF86805424BD1C5B308355B
:1018500068070ED005F00700C0F1080005446807CE
:1018600007D0502080F31188BFF34F8FBFF36F8FE5
:10187000FEE72DB37868854234D8224910310846F6
:10188000046801E0214604466068A84202D220684C
:101890000028F7D13868844224D00E682068086098
:1018A00060680836411B10290FD96019420708D01B
:1018B000502080F31188BFF34F8FBFF36F8FFEE787
:1018C00010E041606560FFF769FF61687868401A61
:1018D0007860BA68904200D2B860F868014300208E
:1018E000C4E9000100F0B4FA700707D0502080F37B
:1018F0001188BFF34F8FBFF36F8FFEE73046BDE80F
:10190000F08100005800002010B5031F4FF08074D4
:101910001C601B1F21F001011960191F044B0B6093
:1019200014390A60091F6FF0020244380A6010BDC2
:1019300009180008D0E9013201699A60D0E9012351
:101940005A604A68824201D182684A60002202617C
:101950000868401E0860086870470000034B036079
:1019600003F154000860802010607047840000205C
:1019700000F108014FF0FF32C0E90112C1600161BE
:1019800000210160704700210161704730B50C688B
:10199000621C02D000F1080202E0026904E01A466B
:1019A00053681D68A542FAD953684B6099608A60F4
:1019B000516008610168491C016030BD42684A609D
:1019C00093688B6093685960916008610168491C55
:1019D00001607047502080F31188BFF34F8FBFF331
:1019E0006F8F0A494868401C486001280CD108489C
:1019F000006810F0FF0F07D0502080F31188BFF36C
:101A00004F8FBFF36F8FFEE770470000700000201C
:101A100004ED00E00849486828B1401E486001D143
:101A200080F311887047502080F31188BFF34F8FE7
:101A3000BFF36F8FFEE700007000002070B5002834
:101A400027D0144DA0F108046068E968084207D166
:101A5000502080F31188BFF34F8FBFF36F8FFEE7E5
:101A600022683AB1502080F31188BFF34F8FBFF343
:101A70006F8FFEE78843606000F07CF860686968FB
:101A8000084468602046FFF789FEBDE8704000F01A
:101A9000DFB970BD580000204FF0E0200021016147
:101AA000816105494FF47A720968B1FBF2F1491E70
:101AB00041610721016170471800002010B5020044
:101AC00014D00F48806B38B1502080F31188BFF3D9
:101AD0004F8FBFF36F8FFEE700F04CF800211046E8
:101AE000FFF706FD00F0B4F9002807D105494FF0D3
:101AF00080500860BFF34F8FBFF36F8F10BD0000A1
:101B00001C00002004ED00E010B586B00024039412
:101B100005AA04A903A80494FFF720FFDDE9030147
:101B20000094CDE9011000230EA11048059A00F0A1
:101B3000FEF80F490028486311D0502080F3118827
:101B4000BFF34F8FBFF36F8F4FF0FF30086301205B
:101B5000C8614C6106B0BDE8104000F041B806B065
:101B600010BD000049444C4500000000B1160008BB
:101B70001C0000200248816B491C816370470000F3
:101B80001C000020144A906B10B101205062704775
:101B90000020506290691149B0FA80F0C0F11F0036
:101BA00000EB800051F820306BB101EB800000F1B8
:101BB0000803416849684160994201D14968416020
:101BC000C86810607047502080F31188BFF34F8FB2
:101BD000BFF36F8FFEE700001C00002070030020A1
:101BE0001CB537480168374A914207D1502080F32D
:101BF0001188BFF34F8FBFF36F8FFEE70068314945
:101C0000491E884207D1502080F31188BFF34F8FBF
:101C1000BFF36F8FFEE72C4908780190FF20087012
:101C200008788DF800009DF800009DF8002000F075
:101C3000F000904207D0502080F31188BFF34F8FFF
:101C4000BFF36F8FFEE79DF80000204B00F05000BF
:101C500018700720986006E0401E98609DF800000C
:101C600040008DF800009DF8000000069868F3D44D
:101C7000032807D0502080F31188BFF34F8FBFF3A4
:101C80006F8FFEE74FF440709860019808700C4821
:101C90002030016841F470010160016841F0704139
:101CA0000160FFF7F9FE00205860FEF79BFA084834
:101CB000016841F040410160FEF780FA00201CBD40
:101CC00000ED00E071C20F4100E400E07000002070
:101CD00034EF00E02DE9FF5F8346DDE90E8799468A
:101CE00016468A469000FFF7A3FD05001CD054203D
:101CF000FFF79EFD040014D00020256384F85100F6
:101D0000CDE90240CDE900874B4632465146584660
:101D1000FFF7FCFC2046FFF723FC012004B0BDE8E0
:101D2000F09F2846FFF78AFE4FF0FF30F6E7F0B548
:101D300085B00546DDE90B040A9EA8B1E4B154273D
:101D400000972063022084F851000020CDE9024072
:101D500004AF2846CDE90067FFF7D8FC2046FFF71F
:101D6000FFFB049805B0F0BD502080F31188BFF34D
:101D70004F8FBFF36F8FFEE7502080F31188BFF3C2
:101D80004F8FBFF36F8FFEE72DE9F0412E4F0026F6
:101D9000B86B40B1386A401C3862786A00B10126DD
:101DA0003046BDE8F0817D696D1C7D6113D1786896
:101DB000006838B1502080F31188BFF34F8FBFF314
:101DC0006F8FFEE77868B9687960B860B86A401CC0
:101DD000B862FFF709FD386BDFF87080854209D3E0
:101DE0007868006880B17868C068C46860688542B7
:101DF0000DD238633868C06A00EB800158F82100C2
:101E00000128CAD90126C8E74FF0FF30F1E7201DAD
:101E1000FFF790FDA06A18B104F11800FFF78AFDE2
:101E2000E06A0121BA6981401143B96100EB800188
:101E300008EB8100211DFFF7C1FDE06A3968C96A1E
:101E40008842CDD30126CBE71C0000207003002080
:101E50002DE9F0472C4D00242746A86B38B1FFF739
:101E6000B9FDA86B401EA863A86B40B146E05020A6
:101E700080F31188BFF34F8FBFF36F8FFEE72869A0
:101E800022490126D0B3A1F1B4098846D8F8001040
:101E9000E9B1D8F80C00C46804F11800FFF74AFD56
:101EA000201DFFF747FDE06AAA6906FA00F1114319
:101EB000A96100EB800109EB8100211DFFF77EFD88
:101EC000E06A2968C96A8842E0D36E62DEE70CB135
:101ED000FFF78AFC2C6A3CB1FFF756FF00B16E6237
:101EE000641EF9D100202862686A38B108490127C8
:101EF00038070860BFF34F8FBFF36F8FFFF78AFD7E
:101F00003846BDE8F08700001C00002024040020B3
:101F100004ED00E0741F0008490F000800000000F5
:101F20000000000080000000000000000000000031
:101F3000641F00088D030008FDFF00000000000082
:101F40008000000000000000000000000000000011
:101F50000000000001020304060708090000000059
:101F6000010203045461736B325F414435343132F2
:101F7000000000005461736B315F4C454400000069
:101F8000A01F00080000002084000000401400088A
:101F90002420000884000020DC43000050140008C6
:101FA0000000000000000000000000000100000030
:101FB00010000000000000000024F40000000000F9
:101FC0000000000000000000000000000000000011
:101FD0000000000000000000000000000000000001
:101FE00000000000000000000000000000000000F1
:101FF00000000000000000000000000000000000E1
:1020000000000000000000000000000000000000D0
:1020100000000000AAAAAAAA000000000000000018
:0420200000000000BC
:040000050800018965
:00000001FF
